:020000022000DC
:1060000000000120756302005D6302005F6302000F
:106010006163020063630200656302000000000028
:1060200000000000000000000000000067630200A4
:1060300069630200000000006B6302006D630200F0
:10604000E98F02006F6302008D920200CD9F020073
:10605000DD9F02006F6302001591020065A302003C
:106060006F6302006F6302006F6302006F630200E0
:106070006F6302006F6302006F6302006F630200D0
:106080006F630200118A02006F6302006F630200F7
:106090006F6302006F63020075FC02006F63020011
:1060A0006F6302006F6302006F6302006F630200A0
:1060B0006F6302006F630200000000000000000038
:1060C0006F6302006F6302006F6302006F63020080
:1060D0006F6302006F6302006F6302000000000044
:1060E00000000000000000000000000000000000B0
:1060F00000000000000000000000000000000000A0
:10610000000000000000000000000000000000008F
:10611000000000000000000000000000000000007F
:10612000000000000000000000000000000000006F
:10613000000000000000000000000000000000005F
:10614000000000000000000000000000000000004F
:10615000000000000000000000000000000000003F
:10616000000000000000000000000000000000002F
:10617000000000000000000000000000000000001F
:10618000000000000000000000000000000000000F
:1061900000000000000000000000000000000000FF
:1061A00000000000000000000000000000000000EF
:1061B00000000000000000000000000000000000DF
:1061C00000000000000000000000000000000000CF
:1061D00000000000000000000000000000000000BF
:1061E00000000000000000000000000000000000AF
:1061F000000000000000000000000000000000009F
:10620000354936480A1A02D0072291438D4634494F
:1062100034480A1A06D00722914381F309880222E2
:1062200082F3148830483149314A00F044F831484B
:106230003149324A00F03FF831483249324A00F0E1
:106240003AF832483249334A00F035F83248334997
:10625000334A00F030F833483349344A00F02BF821
:1062600033483449344A00F026F83448344900228F
:1062700000F02CF833483449002200F027F8334866
:106280003349091A082902DB002202604160314AC1
:1062900090471F481F49884205D00268043003B464
:1062A000904703BCF7E700208646EC46002000211B
:1062B000294A9047FEE7884207D0521A05D0037852
:1062C00001300B700131013AF9D17047884202D098
:1062D00002700130FAE770470000012000E0002062
:1062E000000001200000012088520300C422002089
:1062F00018230020D0630200D06302006C29030041
:1063000088520300C4220020C4220020FC2A03007B
:10631000FC2A0300FC2A0300FC2A0300FC2A0300D9
:10632000FC2A0300FC2A0300FC2A03008852030015
:10633000DC5203001823002018230020182300201B
:106340002C5500202C5500203055002030550020C1
:10635000307500209D63020009B10200FEE7FEE7F0
:10636000FEE7FEE7FEE7FEE7FEE7FEE7FEE7FEE705
:1063700000F002B8FFF7FCBF0F484FF00701884359
:1063800085460E4880470E48016841F4700101605F
:10639000BFF34F8FBFF36F8FFFF732BF09480A4932
:1063A0000A4A884207D0521A05D0037801300B7090
:1063B0000131013AF9D1704700000120858A0200BD
:1063C00088ED00E0E82A0300B0220020C42200206B
:1063D00000487047245500207047037813F00402EA
:1063E00016D003F00303012B03D0022B09D00120A8
:1063F00070470A6800880232C0F3831002440A60C2
:10640000F5E70B684288023303EB92130B60EEE76B
:10641000104670472DE9F04FDFF830A187B00F46E6
:1064200000230446861C0DF1070015468DF8073041
:1064300000F046FCDAF800103960DAE90132134462
:1064400001335B1A0AF21C470AF583690AF2144801
:10645000B3421CD30020002D73D004F00F039B0126
:1064600043F0050363F30F00DAF80020DAF8083090
:106470001340033332444AF823009DF80700CAF85A
:10648000002000F041FC012007B0BDE8F08F0121A1
:10649000384601F0FDFC484601F015FD404601F08C
:1064A00012FDDAF80400DAF808B0029000EA0B00F6
:1064B00003300AEB800002A9FFF78FFF029B50BB5D
:1064C0000BEA03020AEB820203F1020CD268039288
:1064D000013303EA0B0B0AEB8B0B02F00302012AD8
:1064E000DBF80C10CDF808C023D0022A16D0834662
:1064F000404601F0EBFC10B1029BCAF8043059464B
:10650000384601F0C5FCDAE901231344DAF800202B
:1065100001339B1A9CE70BEA0300C9E7BDF80E3074
:10652000C3F3891303334FEA114B0CEB930302932C
:10653000DEE7BDF80C30C3F383134FEA114B63441D
:10654000F5E7A40544F006008EE700BFE82300202D
:106550000B4B0C48FF2210B59A600022C3F8182498
:10656000C3E90022C3F8142483F8202402F009F8B8
:10657000044610B9044802F0A7F8204610BD00BF39
:10658000E8230020F4290300142B0300034BD3E974
:106590000030C31A58425841704700BFE82300201A
:1065A0002DE9F04387B0FFF7F1FF0646002840F0E1
:1065B000FE80804CC4F81804BFF34F8F6368A56851
:1065C00002932B40033304EB830002A9FFF705FF7E
:1065D000029B18B1D4F81824002A62D005EA0302FD
:1065E000991C013304EB82022B4004EB8303D26835
:1065F000DB68049302F00303022B0392029163D140
:10660000BDF80E306C48C3F38917502FB84628BF29
:106610004FF0500808F1080168F38F13C1F3090126
:10662000ADF80E3001F0C5FF0646002800F0AA8044
:1066300001F0EEFF0023082203A9304601F0FAFF23
:10664000029925EA01020132B8EB820F4FEA820378
:1066500033D95FFA88F863B32940DDB2A8EB0508A7
:1066600003315FFA88F9A846544D04EB81010823F1
:106670004246304601F0DEFF3DB108F10803DBB2CF
:106680004A462946304601F0D5FF029B033703EB0B
:1066900097070297D4F81834002B4BD1D4F8105434
:1066A0005BE022689A428CD86260304607B0BDE851
:1066B000F08342491D469946D9E729400331082312
:1066C000424604EB8101DDE7012B5BD1BDF80C30C4
:1066D0003948C3F38311062928BF062161F38913C2
:1066E000023101F00F018900ADF80C3001F061FFBB
:1066F0000646002846D001F08BFF0023082203A99C
:10670000304601F097FF0027BDF80C20C2F383123A
:10671000BB00974203F10803BCD202994A1C2940EE
:106720000331029204EB81010422304601F082FF22
:106730000137E9E7304601F06FFFFFF727FF80F0F0
:106740000100C6B2B1E7EB685B7923B12B68314633
:106750001B6828469847EB681D68002DF3D130462A
:1067600001F05AFF0DF107008DF8075000F0A8FA6C
:10677000D4F818340BB9029B63609DF8070000F051
:10678000C3FADAE7D4F8104454B90D4B0D480E495A
:10679000C01AC008000440F0020000F063F8CCE723
:1067A000236820469B689847E3681C68ECE700264E
:1067B0007BE700BFE8230020F4290300F423002036
:1067C000082A0300402A0300FC2A03002DE9F74FA2
:1067D000224E04460F46924601A901221846D6F8D9
:1067E00008909B46FFF716FE20B3019D4FF000086E
:1067F000AA1CD84508EB020126D11948002101F056
:1068000000FB80F31000000440EA1440E4006B1C1D
:1068100004F0380403EA090305EA090544F0010419
:1068200006EB8303033544EA881444EA8724D860DE
:1068300046F8254096F820341BB1FFF7B1FE00283A
:10684000FBD103B0BDE8F08F09EA010106EB81013D
:106850005AF82830CB6008F10108CAE7E823002085
:106860000428002000231A46FFF7B0BF07B5012314
:10687000019201AAFFF7AAFF03B05DF804FB07B578
:10688000CDE9002302236A46FFF7A0FF03B05DF8BD
:1068900004FB1FB5CDE90123069B039301AA032343
:1068A000FFF794FF05B05DF804FB1FB5CDE90023A9
:1068B000069B0293079B03936A460423FFF786FF18
:1068C00005B05DF804FB000038B5084B0125D3F88E
:1068D000104483F8205404B938BDE3685D7123681F
:1068E00020465B689847E3681C68F4E7E8230020CB
:1068F0001FB50021039001AA44F20100CDE9011166
:1069000000F004F805B05DF804FB000038B572B67D
:10691000FFF7DAFFFFF744FE0028FBD1104B114CC4
:10692000114D1249E41AE408240444F00100FFF771
:1069300099FFD5F8F030DB0700D500BE0C4944F0D4
:106940000200FFF78FFFBFF34F8FEA68094B02F495
:10695000E0621343EB60BFF34F8F00BFFDE700BF62
:10696000082A0300402A030000ED00E02B2B03005F
:10697000372B03000400FA0510B5D0E90243D1E932
:106980000202A04272EB03032CBF0120002010BDC5
:1069900008B50A4802F027F8094AD2E90031C018C0
:1069A000084BD3E9002341F10001904271EB03034E
:1069B00003D210F1807041F1000108BDC422002013
:1069C000A82800202029002037B505460C460A4893
:1069D00001A901F04AF960B10570446001A90648B7
:1069E00001F06DF918B1054802F002F8002003B07B
:1069F00030BD0420FBE700BF0C290020C42200208A
:106A000038B5184B1B78044613B90025284638BD05
:106A10000028FAD0037F03F0FF05002BF5D0FFF725
:106A2000B7FFD4E90223904271EB030314D3236927
:106A300003B92377D4E90530984721690029E4D0C8
:106A4000237F03F0FF05002BDFD0D4E902325B186F
:106A500042F10002C4E902320348214601F053FE2C
:106A6000D4E700BFB0280020542B030013B5114B0E
:106A700011491868019008231048582201F0C0F805
:106A8000044698B90E4A0F4801A901F099FE044640
:106A900060B90C48012101F089FF01230A4A094825
:106AA000194601F0EBFE094B01221A70204602B094
:106AB00010BD00BF4E2B0300B42800200C2900207D
:106AC000316B0200C4220020FFFF7F00B0280020AD
:106AD0003AB103685A614A1E51425141196100207E
:106AE00070470720704738B5037F04460D4683B9C9
:106AF0008261FFF74DFF2369281841F10001C4E9C5
:106B0000020103B1256121460020BDE83840FFF7AE
:106B10005BBF002038BD0023014603770120FFF74B
:106B200053BF0000014801F05EBF00BFC422002037
:106B30002DE9F347064601F041FF40B1584AD2E93A
:106B4000003113F1807341F10001C2E900310021ED
:106B5000304601F042FF38B1524C236823B120681F
:106B6000FFF74EFF002323600121304601F035FF7F
:106B700020B1FFF70DFF4C4BC3E900014B48494DD5
:106B80004B4C4C4F01A901F0AAF8002842D1DFF884
:106B90002081444CDFF82491404601F0CAFD23686F
:106BA000002872D07BB12368D0E90252D3E90213E6
:106BB0008D4272EB03032AD223681B7F1BB121682D
:106BC000404601F0A0FD404601F0ADFDD0E9027A5B
:106BD0000546FFF7DDFE381A6AEB010A01287AF153
:106BE000000345DBB0F5350F40D3FFF79BFF324A7A
:106BF00002444FF496030021484601F05FFE00284E
:106C00003ED1236813B9304601F030FE256002B052
:106C1000BDE8F0870378012B1DD0022B09D14FF07E
:106C20000008204601F07FFD002836D080F81C8047
:106C3000F7E73BB941680B7F23B901230B77204667
:106C400001F061FD01A9194801F074F801A9174884
:106C500001F045F899E741682B68994202D1002379
:106C60002B60EFE7204601F067FDEBE7AA68C0E77D
:106C70000021484601F0A7FE2846FFF7C1FE01E0CB
:106C80000D28F9D00023236086E7002BBFD13046C2
:106C900002B0BDE8F04701F0EDBD01233B70D1E744
:106CA000A828002028290020202900200C290020C5
:106CB000542B0300B0280020FFFFB400C4220020A2
:106CC00070B5EFF3108672B60C4A946801239CB934
:106CD00093600B4B0B4DD3F8801029401160C3F823
:106CE0008050D3F8841051604FF0FF32C3F88420F5
:106CF000047006B962B670BD0370FAE72C29002053
:106D000000E100E0FC06FFBD084B9A6810B55AB1DF
:106D100050B9EFF3108172B6054A1C6814605C68C4
:106D20005460986001B962B610BD00BF2C290020E4
:106D300000E100E070B5064D0646002455F8043B1E
:106D40000BB1304698470134042CF7D170BD00BF19
:106D5000442900204388033300EB830399420BD37B
:106D600082884FF6FF739A4208D0038833B1806857
:106D7000431C584258417047022070470120704719
:106D8000033080B240F2FE33984230B51FD8134B27
:106D90001A783AB91C895D892C440444A4B2B4F52C
:106DA000806F0AD91A7DAAB99A8BDC8B22440244DF
:106DB00092B2B2F5806F0DD801220A8014461422D7
:106DC00002FB04335A8910445881002030BD48F238
:106DD0000860FBE748F20660F8E700BF782900206A
:106DE0000B4A0C495388142000FB0311CB6833B9BC
:106DF0000420496810700122074801F08BB9074947
:106E00000523137002238B80012209680023F3E716
:106E10005C29002078290020B0220020402A002090
:106E200007B5002305490093054A0968054808236A
:106E300001F0D6F803B05DF804FB00BF402A002043
:106E40006C2B0300B022002007B5002301460093FD
:106E5000034A0448082301F0C3F803B05DF804FBBB
:106E6000642B0300B022002013B500230C460093CE
:106E70000146084A0848042301F0B2F838B9074B24
:106E8000142101FB043101230B7402B010BD48F240
:106E90000D60FAE7602B0300B02200207829002063
:106EA00037B50A480A4B42689C88196853880325FD
:106EB000033305709BB2002000909B0001EB84011E
:106EC000044801F08DF803B030BD00BF5C290020FC
:106ED000402A0020B022002010B50146044800F0EE
:106EE000C4FE1C22044600210AF066FD204610BDA7
:106EF0002C2A002068B10268084B9A4209D14068E8
:106F0000074B984207D00133984214BF0320012059
:106F10007047032070470020704700BFDEC0ADDE21
:106F2000FE011EF12DE9F0410D460223154F2B8085
:106F3000164600F5805100F108044FF001088C421C
:106F40000ED2236801330BD02046FFF703FF48B170
:106F50000EB186F80080022809D14FF480632B809F
:106F6000BDE8F081A3683A68934200D93B602B8862
:106F70006288033313442B806388033304EB830458
:106F8000DDE700BF7029002038B5144B14220D46F0
:106F900002FB00302B68446804F58051A3B15C8883
:106FA000033403EB84048C4215D22368013312D0DE
:106FB0002046FFF7CFFE012808D002280BD000287A
:106FC000F1D12C60012038BD0834ECE7638803332D
:106FD00004EB8304E7E70020F5E700BF78290020F1
:106FE000426873B504460D466AB3234BD9688A429A
:106FF00029D31B699A4226D812F0030323D11F49D3
:107000000089098988421ED12068916888421AD176
:107010001B4841688A4203D901F580518A420DD349
:1070200081698A420CD901F580518A4208D2012235
:107030002A80B3FA83F0400902B070BD1A46F7E720
:1070400048F20963F5E700262E800196288801A9F9
:10705000FFF79AFF30B92B8801339BB2012B2B80AD
:10706000F3D9E9E7019B226899689142EED1636008
:10707000024B1B892381DFE7B02200205C2900201E
:10708000782900202DE9F8431C461D4B1B78064645
:107090000F46154673B382B37CB3DFF86C804FF0B4
:1070A0001409A388012B02D948F2096020E009FBEA
:1070B00003F318F803302BB9A0882146FFF764FFCB
:1070C00020B92060A3880133A380EAE723681EB1BA
:1070D000998832889142EFD11FB119883A8891423C
:1070E000EAD19A68C5E90023064B1B892B81002051
:1070F000BDE8F88348F20160FAE748F20460F7E778
:10710000542900205C2900207829002008B5074B6D
:107110005888191DFFF738FF18B1BDE80840FFF780
:10712000BFBEBDE80840FFF75BBE00BF5C29002082
:107130002DE9F047A24FDFF8AC8288B006463B68E5
:1071400023B9A048414600F0CAFD38603D6829785F
:107150004B1E052B07D8DFE813F020007A007A00D9
:107160000C010C01630148F20E641422002103A8F3
:107170000AF022FC41F61D539C4208BF00243B68E4
:1071800004941A78023A042A00F20082DFE812F02E
:10719000E101ED010F0217021E022EB18A4B0022FF
:1071A0005A604FF40644E0E72B79032B1CD8DFE844
:1071B00003F014022A35854A1378022B1AD0137D66
:1071C000022B4FF0010317D114214B43D11800209B
:1071D000D0544868FFF738FE03E001232B71FFF716
:1071E0001FFE002800F0BF80774B00225A6048F253
:1071F0000D64BAE70023E7E7734A13700023536076
:1072000041F61D54B1E772497248002302222B71E6
:107210008A800968012200F07DFFE2E76C4C0026BD
:107220002E712068FFF710FE6B4BDFF8A0C15B8862
:107230002568142253430CEB03020CF803605168D9
:107240005560A588158102222160A280C9E7B5F8A2
:1072500014A0AA7DDFF87491AEB1022AEB8806D99A
:10726000142101FB0A91DA1C088902440A811422C4
:1072700002FB0A99C3F57F43B9F80A20FD33134492
:10728000A9F80A308DE7142303FB0A9318895C6878
:1072900004EB8004062A69D8DFE802F0274E364462
:1072A0001D5A040041F61D54AA7DEB88022A06D916
:1072B000142101FB0A91DA1C088902440A81142274
:1072C00002FB0A99C3F57F43B9F80A20FD33134442
:1072D000A9F80A3049E74148414900234360AB69B6
:1072E0000360FFF77DFE00285BD00223AB7500230F
:1072F00000930423EA182146364800F071FE002866
:1073000031D048F20D64CFE72B69002B14BF032363
:107310000123AB750023009305F10C02042304F153
:107320000801E9E70123AB750022EB8800922A6986
:107330009B0004F10C01DFE703290CBF05230623A2
:10734000AB7500230093042305F10802E118D3E78D
:107350000623AB75224B1988204B5868FFF784FD34
:1073600004460028A0D108B0BDE8F08748F20E64BA
:107370009AE7002E7FF415AF2B79012B34D0022B26
:107380003FF43EAF002B7FF4EEAE02232B710DF1E4
:107390000A01EB68039303A8CDE90466FFF720FE1A
:1073A00010B948F20964E0E60498BDF80A10838831
:1073B000EB8003882B81FFF757FD044629E000BFCF
:1073C000742900202C2A002054290020782900202C
:1073D000402A0020B02200205C290020382900200B
:1073E0004C2A00206C290020DFF8FC9103AA4B46B0
:1073F0003146A81DFFF746FE044670B9B9F80410DF
:107400000498FFF731FD044648F209639C423FF4BB
:10741000F7AE002C7FF4A9AEA5E7C9E90066F3E753
:10742000002E7FF4BEAE6B4B1A7BBAB11E731A7876
:10743000013A062A3FF697AE01A151F822F000BFAB
:10744000E77402000D7502002B7502003175020011
:107450006771020037750200497502001A78072A21
:10746000E5D801A151F822F0897402002F740200BE
:107470002F740200AF740200C3740200E3740200B0
:10748000E3740200AB7402001A89534901321A8175
:1074900000225A801A730A78B2FA82F252099A725A
:1074A0000A7DB2FA82F25209DA72012207E04B49F0
:1074B00058688A884088033202448A8002221A70FF
:1074C000B5E75C88444A4549142505FB0422086851
:1074D000546850608888108102228A800C600622DD
:1074E000EDE70722EBE79A7A32B9DA7A8AB9002215
:1074F0001A705A805A6083E6374900229A72CA6825
:10750000002AF2D1097C0029EFD05A80FFF7FEFD56
:1075100053E70022DA72304A116A0029E7D192F863
:107520002420002AE3D00122EFE7FFF7B9FC44E76B
:10753000FFF756FC41E75A88274B142101FB023321
:107540005868FFF781FC38E700225A60FFF768FCB3
:1075500033E701228DF80C201A89ADF818209A889B
:10756000DB68ADF81A20059310E002228DF80C209C
:107570001A89ADF818209A88ADF81A20DA689B7D30
:1075800005929A1F534253418DF81C3003A8FFF710
:10759000D1FB0026414612483E6000F0CBFB11486B
:1075A000012100F081FC00287FF4C9ADDBE6032255
:1075B0008DF80C20DA88ADF818201A89D0E704225B
:1075C0008DF80C20DB88ADF81830DFE705238DF847
:1075D0000C30DBE75C29002078290020402A0020BD
:1075E0002C2A00203C2A0020502A00204068FFF767
:1075F0009FBD000008B50548012100F03DFC18B909
:10760000BDE80840FFF794BD08BD00BF3C2A00203C
:107610002DE9F3419846374B1B7806460D46002B63
:107620005CD000295DD009884FF6FF7399425BD08A
:107630006B88002B58D06B689B0758D14AB92F89AB
:107640000DF102013846FFF79BFB30B102B0BDE8F7
:10765000F08113885788ADF8023001A8FFF73CFC91
:10766000044660B9BDF80220234B142101FB02330C
:1076700058890338C01B588148F20760E6E780F854
:10768000008000238375BDF8023083826B6803613C
:1076900001211A4800F0FCFB2B882381B8F1030F6D
:1076A0006B88A38004BF0423A3754FF0000508BFB7
:1076B0003368E06008BFA3611148E780658101A9D4
:1076C00000F0FDFA36B1E36833600E4B75601B893C
:1076D000B5723381FFF78EFF0020B7E748F20160F3
:1076E000B4E748F20460B1E748F20360AEE748F25D
:1076F0000260ABE75429002078290020702900207F
:107700002C2A00205C29002008B50346074802689F
:10771000042A08D00168064A42F82130012100F00D
:10772000B7FB002008BD48F20B60FBE7482A0020A9
:10773000442900202DE9F04F89B01422002103A82C
:107740000AF03AF97A4B1B7803F0FF0B3BB103A820
:10775000FFF7F0FA0027384609B0BDE8F08F744B08
:10776000181D00F0ADFB0028F4D1DBF8F83FDFF87E
:10777000E0A15C1C08BF4FF010234FF0805208BFFF
:107780005B6911695269581C08BF02FB01F3CAF812
:1077900010306849A3F5405300225046CAF80C3017
:1077A00000F0ECFB07460028D5D11C236249634852
:1077B000DFF8A0918C2200F023FA0323B8463D465F
:1077C00001933C46DAF80C6046443046FFF792FBE2
:1077D000012862D0032817D000283DD158494FF026
:1077E000140C0CFB04FC01EB0C0201F80C005660BD
:1077F0000CF110020CF1080C0A4430466144FFF70A
:1078000091FB45F0020545E03268531C02D04D4B18
:107810009A4234D1321D06F58051106801302ED1C4
:1078200004329142F9D1D9F800203AB90222C9F8BC
:107830000060A9F804204FF0010B0BE01422624312
:107840003F4B0220991898543F4A4E6054800134AF
:107850000881A4B245F0010508F58058B8F5405FED
:10786000B0D1019B012B98BF0025EDB2022D03D0B2
:10787000062D32D0002D39D148F20A676BE7019B03
:107880002F495A1E93B2142262438818019346600E
:10789000032088540134A4B2DEE7BBF1000F0DD001
:1078A000274B14226243991802209854D9F80020DB
:1078B0004A60254A088154800134A4B20022234939
:1078C000C9F800603046FFF72DFBB9F80420022A02
:1078D0000CBF042208221543BEE7154A012313708A
:1078E00003A800235360FFF725FA34E702A8FFF747
:1078F000F3FAC8B10123013D03700A2D09D8DFE86E
:1079000005F006080608070807080F110F000023F6
:10791000037102A9094800F0D2F9FFF76BFE1AE7DC
:107920000323F5E70223F3E748F2076713E700BFF5
:1079300054290020502D0300A02900202C2A0020CB
:1079400078290020DEC0ADDE5C290020442A00201A
:10795000B0220020402A002073B50D460446C8B16D
:10796000C1B10DF10601FFF73BFBB0B1BDF8063028
:107970000B486668142202FB030001210C3000F062
:1079800087FA63682E600C336B600123A3720020BA
:1079900002B070BD48F20460FAE748F20960F7E708
:1079A0007829002013B50446A8B10DF10601FFF7B0
:1079B00017FB98B1BDF806200B4B142101FB0233D5
:1079C000DA6872B1A27A62B1DA680020013ADA604C
:1079D000A07202B010BD48F20460FAE748F20960F4
:1079E000F7E748F20560F4E7782900200223002237
:1079F000FFF70EBE18B103230022FFF709BE48F2BD
:107A000004607047114B1B7813B50446ABB14FF6B9
:107A1000FF73984214D001A8FFF75EFA98B10523CE
:107A2000037001230371C48001A9094800F047F9DC
:107A3000FFF7E0FD002002B010BD48F20160FAE758
:107A400048F20360F7E748F20760F4E754290020A2
:107A50002C2A00200F4B1B7807B5A3B101A8FFF714
:107A60003BFA98B10623037001A90B4800F027F9EF
:107A70000A4B1A780AB101221A73FFF7BBFD0020E6
:107A800003B05DF804FB48F20160F9E748F20760D3
:107A9000F6E700BF542900202C2A00205C29002092
:107AA00007B5ADF80600ADF804100DF1060001A908
:107AB000FFF7E8FA03B05DF804FB07B51346ADF82D
:107AC00006000A4600200DF10601FFF7DBFA03B0BD
:107AD0005DF804FB07B51346ADF806000A460DF144
:107AE00006000021FFF7CEFA03B05DF804FB20B1D9
:107AF00019B103680B600020704748F204607047BA
:107B00002DE9F84F3C4B1B780446002B6DD0002824
:107B10006ED0DFF8E8901222002109F04DFF032318
:107B200023804FF0000A4F4614264FF00108D9F881
:107B30000410B9F80AB0B9F808500846FFF7DAF9A6
:107B4000032808BF2388628804BF03F1FF33238022
:107B500006FB0A735D44DB681344638023899B44FE
:107B60006389A4F808B0ADB22B446381C5F5806584
:107B7000A389ADB2AB4238BFA58101F1080501F57B
:107B80008051A94229D92B68013326D02846FFF716
:107B9000E1F801280AD0022815D00028F1D1A388E5
:107BA0000133A3800AE04FF0010AC0E7E388013304
:107BB000E380E3896A8803331344E3816B880333EA
:107BC00005EB8305DDE7E38884F810804D1BE18930
:107BD000013301EBA501E380E18109F11409BAF158
:107BE000000FE0D00020BDE8F88F48F20160FAE70E
:107BF00048F20460F7E700BF5429002078290020EC
:107C000010B561B1B2FBF3F403FB1424A4B244B980
:107C1000C0E9001484608281C381204610BD0E201B
:107C2000FCE70920FAE782B050E8022FC188B2EBE6
:107C3000324F4FF0000317BF92B241EA014142EACE
:107C4000014104E04268B2EB324F08BF012340E833
:107C50000212002AE8D18DF807309DF80730002B7A
:107C60000CBF1120002002B0704737B550E8013F2B
:107C70009DB2C48925448489A54228BF2D1B04894F
:107C8000A54202BFBFF32F8F002207E0C5EA03051C
:107C900040E80154002CE9D14FF001028DF8032097
:107CA0000193019A0A609DF8031001F0FF0321B1CE
:107CB000006810FA82F003B030BD1846FBE70A886E
:107CC0004B889A4209D150E8012FC2EA024240E8AB
:107CD0000123002BF7D1012070470020704737B5F2
:107CE00050E8023F1FFAA3F5C488A54202BFBFF3C4
:107CF0002F8F00220DE0C48925448489A54228BF26
:107D00002D1BC3EA054540E80254002CE8D14FF092
:107D100001028DF803200193019A0A609DF8031077
:107D200001F0FF0321B1006800EB124003B030BD49
:107D30001846FBE70A884B889A4209D150E8022F7F
:107D4000C2EA224240E80223002BF7D1012070470B
:107D50000020704701F01F024B090121914000EB08
:107D6000830000F065B84B0910B501F01F04012134
:107D7000A14000EB830000F04FF8E04000F001006C
:107D800010BD01F01F0301229A404B0900EB830054
:107D9000D14300F065B84B0901F01F0150F82300F2
:107DA000C84000F0010070472DE9F0474F1E7F09E1
:107DB00080460E460137002558F8254008EB850916
:107DC000E44394FAA4F4B4FA84F44FEA451A202C5C
:107DD00006D10135AF42EFD834462046BDE8F087E2
:107DE0005444A642F5D921464046FFF7BCFF00287F
:107DF000F3D0D9F80040E44394FAA4F4B4FA84F43C
:107E0000E5E710B5034653E8000F0A4643E80024AF
:107E100094F0000FF7D110BD10B5034653E8000FE2
:107E200040EA010243E8002494F0000FF6D110BDAF
:107E300010B5034653E8002F42EA010043E800046E
:107E400094F0000FF6D110BD10B5034653E8000FB3
:107E500000EA010243E8002494F0000FF6D110BDBF
:107E600010B5034653E8002F02EA010043E800047E
:107E700094F0000FF6D110BD10B5034653E8000F83
:107E800000EB010243E8002494F0000FF6D110BD8E
:107E900010B5034653E8002F02EB010043E800044D
:107EA00094F0000FF6D110BD10B5034653E8002F33
:107EB000A2EB010043E8000494F0000FF6D110BDDE
:107EC0000121FFF7A9BF0121FFF7B2BF0021FFF792
:107ED000BBBF10B590B1D0E9012301689B1ADBB29A
:107EE0000A60013BDBB2FF2B026802D10020107157
:107EF00010BD11684C1C14600B70F2E70E20F7E700
:107F000037B5054600240DF107008DF80740FEF750
:107F1000D7FE2A686B68116899420ED9481E106016
:107F200011F8013CEC68298A01FB0344AB68117924
:107F30001B1ADBB2994238BF13719DF80700FEF798
:107F4000E3FE204603B030BD37B5054600230DF1F2
:107F500007000C468DF80730FEF7B2FE2A6813685A
:107F6000591C1160E968641A298AB4FBF1F41C7089
:107F70009DF80700FEF7C8FE03B030BD13B50B46F1
:107F8000114680B9104B1148114AC01A0E23C0087F
:107F90000093104B0004104940F00100FEF779FCFB
:107FA0000E2002B010BD4BB9074B08480B4AC01A4F
:107FB000C0080E2300930004064BECE703601B6827
:107FC00002B0BDE810401847082A0300702A0300D9
:107FD000742B0300302D0300792B0300A82B030022
:107FE0002DE9F743DDF8288088B93E4B3E483F4AEB
:107FF000C01AC0080E243E4B009400043D4940F0D6
:108000000100FEF746FC204603B0BDE8F0834AB904
:10801000344B3548384AC01AC0080E24344B0094FB
:108020000004EBE7D0F800E0BEF1000F09D12D4BC2
:108030002D48324AC01AC00808242D4B0094000471
:10804000DCE74BB9274B28482D4AC01AC008092441
:10805000274B00940004D1E74568D5F80490B3FBA2
:10806000F9F509FB15354DB11E4B1F48254AC01ABD
:10807000C00809241E4B00940004BFE78D0709D0F7
:10808000184B1948204AC01AC0081024184B0094F5
:108090000004B3E712F0030F09D0124B12481B4A39
:1080A000C01AC0081024124B00940004A6E7C5684B
:1080B000A9420DD34D1EEC180569AC4208D8CDF885
:1080C0002880DEF80C40A44603B0BDE8F0436047CA
:1080D000044B05480E4AC01AC0081024044B0094F3
:1080E00000048BE7082A0300702A0300742B0300A6
:1080F0001D2D0300792B0300F62B0300A22B030098
:10810000B52B0300FC2B0300262C03003E2C0300A0
:10811000612C0300F7B580B92A4B2B482B4AC01AB3
:10812000C0080E242A4B009400042A4940F00100A4
:10813000FEF7AFFB204603B0F0BDD0F800C0BCF1A5
:10814000000F09D11F4B2048234AC01AC008082439
:108150001F4B00940004E8E74AB91A4B1A481F4A1B
:10816000C01AC00809241A4B00940004DDE74568D2
:10817000D5F800E00EF1FF350D4209D0114B124841
:10818000174AC01AC0081024114B00940004CCE711
:10819000C568A9420CD34D1E0EFB02540569AC42C2
:1081A00006D8DCF81040A44603B0BDE8F0406047B4
:1081B000044B05480B4AC01AC0081024044B009415
:1081C0000004B2E7082A0300702A0300742B03009E
:1081D0000A2D0300792B0300A22B0300B52B03000B
:1081E000882C0300AE2C030029DF704728DF70477E
:1081F00070B503689E6886B004460D466EB11422C1
:108200000021684609F0D8FBA368059323790195FE
:108210002BB1012B0DD06846B04706B070BD0123CD
:108220008DF8003023690293E36803936369049334
:10823000F1E702238DF80030E3681B030293F5E7B2
:108240000846704700207047024B187A003818BF64
:1082500001207047F42A0020034B187A0122B0FA5B
:1082600080F05A7440097047F42A002008B510467F
:108270001A4609F078FB002008BD000008B514225A
:108280000021044809F098FB0348FFF7CCFC0020CC
:1082900008BD00BFF42A0020E42A002010B5094CD4
:1082A000094B43602046FFF70BFE40B907F0C8FCBE
:1082B000064920741C2306488C22FFF7A1FC0020ED
:1082C00010BD00BFF42A0020442D0300582A0020CE
:1082D000E42A002038B5234D234C2B7A3BB923499F
:1082E0002348FFF7FCFC206008B9686038BD022312
:1082F00024682B72237973B1012B24D020460321EB
:10830000FFF776FF00232B726B6018491848BDE811
:108310003840FFF70FBDD4E90523D21AB2F5805FCC
:10832000D4E9031028BF4FF480529208012A38BFC5
:10833000012219441844FFF757FF50B11128DDD12D
:1083400001232B72D2E7D4E903031844FFF74EFF51
:10835000F3E72B7C002BC9D1BDE83840022000F0A8
:1083600009B800BFF42A00200C2B0020082B0020A5
:10837000E42A002038B5234C237A002B41D0022B6D
:1083800009D1032830D0204B00221B68E2601A7903
:108390003AB1012A22D0637C7BBBBDE83840FFF7AD
:1083A00099BFD3E905128D1AB5F5805F94BF5219B4
:1083B00002F580529A619142EDD102284FF00003FC
:1083C00008BF19462372104B18BF0D211868FFF71C
:1083D0000FFF0E490E48FFF7ADFCDCE71A690132CA
:1083E0001A615B699A42E7E7E3680133082B01D819
:1083F000E360D0E70023E360DFE7BDE8384007F043
:108400000FBC38BDF42A00200C2B0020082B0020C4
:10841000E42A0020831E012B01D8FFF7ABBF704771
:1084200000F0FD03012B08D1044B00225A74421EB8
:10843000504250411874FFF74DBF7047F42A002096
:1084400010B5064C201DFFF73BFD28B9637C1BB916
:10845000BDE81040FFF73EBF10BD00BFF42A00206A
:108460002DE9F34180460D46104801A916461F46E6
:10847000FFF7FBFB0446B0B118220021043009F0DD
:108480009BFA2D0B0123237101A90848C4F8008031
:10849000A760E5606661FFF712FCFFF7D1FF0020DF
:1084A00002B0BDE8F0810420FAE700BFE42A002012
:1084B0002DE9F34180460F460F4801A916461D4697
:1084C000FFF7D3FB0446A8B118220021043009F0BD
:1084D00073FA089BA36001A9C4E903670648C4F8BE
:1084E00000806561FFF7EBFBFFF7AAFF002002B0F9
:1084F000BDE8F0810420FAE7E42A00202DE9F84FD6
:10850000B0F806A04579D2F800B09DF828900AFB93
:1085100005F5043D88460BEB0301A94203F1040471
:1085200088BFA5EB030BB4FBFAF607460AFB16441B
:10853000C2F800B04EB9AAEB04055D4528BF5D4600
:10854000BBF1000F04D1BDE8F88F3F68013EF1E7B1
:10855000043408EB06003C442A46B9F1000F0DD064
:108560002146ABEB050B09F0FEF9DA452E443F68D6
:1085700055464FF0000428BF5D46E1E7014620461E
:10858000EFE7FFF7A6BCF8B546790146721E05462F
:10859000002393422D6803D30024A64202D8F8BDDD
:1085A0000133F6E70F682846FFF7CEFC0134394661
:1085B000F3E72DE9F843068ACD1C0746FFF7A0FC38
:1085C000043E35440446B5FBF6F5F0B14FF4807334
:1085D000EDB28380C680013D076081464FF0000800
:1085E000A84512D23846FFF78BFC064648B163799E
:1085F0000133637108F10108C9F800000760814682
:10860000EEE72046FFF7BFFF34462046BDE8F8837B
:1086100001210430FFF73CBC10B5012104460430B1
:10862000FFF742FCC0B220B92046BDE81040FFF77A
:10863000AABF10BD1FB503920022009203AAFFF744
:108640005DFF05B05DF804FB41DF7047064B10B5D8
:1086500000241C70054B1C60BFF35F8F0449054864
:1086600000F03BF8204610BD182B00201C2B0020EA
:108670007C2D0300102B002007B500230DF107000F
:108680008DF80730FEF71CFBF1EE103A23F09F0344
:10869000E1EE103ABFF35F8F0A4B4022C3F884210A
:1086A0009DF80700FEF730FB07F0CAFA20B103B0CF
:1086B0005DF804EBFFF7C8BF20BF40BF20BF03B089
:1086C0005DF804FB00E100E0836800225A60C3E922
:1086D00004229A60DA601A6070470B684A68436047
:1086E000934208BF0023016008BF4360704743689E
:1086F00043B10268916852680B449342436004BFDF
:1087000000234360704770B5446806460D462068F4
:1087100018B1B3682946984718B923682B602560BB
:1087200070BD2468F3E74368186808B102681A60EE
:1087300070474368186870474368186800B9704705
:10874000884203D102681A6001207047034600681E
:10875000F4E7000010B50D49A1F59472914201D8DB
:1087600000200FE08C1AE30F03EBE4035B1002EB35
:10877000C30452F83330834205D802D204F1080210
:10878000ECE7606810BD2146E8E700BF88320300CF
:1087900008B5FFF7DFFF024B002808BF184608BDE9
:1087A0004B310300435882B03BB100234350435840
:1087B0000193019B012002B070471846FBE70000BF
:1087C000F8B5224B4579224E43F82520214A224B09
:1087D0009B1A06EBC502DB0812791B04EF0032B1CD
:1087E00043F002001D49FEF73DF80820F8BD02687D
:1087F0000C88C2F8084590F9044002798978002C69
:10880000ADBF04F1604CDFF85CC002F00F0E0CF558
:10881000614C4FEA4111C9B2B4BF0CF80E108CF88C
:10882000001364090121DFF840C002F01F0201FAC1
:1088300002F24CF82420F21946F83500117143F089
:1088400003000749FEF70EF80020CFE7282B002091
:10885000202B0020082A0300502A0300883203003E
:10886000AA32030014ED00E000E100E003680122F9
:108870001A607047036801225A60704773B501F1AE
:108880005005AD000068ADB24FF480348C40002636
:10889000C0F80843C0F84843465101F5A87145594E
:1088A000019522F07F42019D40F82120C0F8444309
:1088B0000BB1C0F8044302B070BD00002DE9F74FC2
:1088C0000D4622F07F4402684FF4803705F15006D0
:1088D0008F408046B60002EB8500C2F84873B6B2FE
:1088E000C2F80873D2F8041599464FF0000BD0F87F
:1088F0004035C0F8401542F806B05B1A9259009214
:1089000023F07F43012B009A4FEA850A0CD1264BB6
:108910004FF4806043F001039847D8F8003043F8E3
:1089200006B09B590193019BD8F80010D1F804655B
:10893000C1F84473A31B23F07F43012B1CD11A4BB6
:1089400005F5A875013443F0010341F825404FF4C3
:1089500080609847D8F80030D3F804359E4209D19A
:10896000D8F800300020C3F84473C3F8047303B090
:10897000BDE8F08F0D20FAE78A44C9F1FF13CAF869
:108980004045D1F80405221A013A22F07F4203F54E
:108990007F439342EED3002AE2D10134CAF8404526
:1089A000D1F804359842DAE7C032030003680222A6
:1089B000C3F8442309B1C3F80423704700684FF497
:1089C0008271FFF7EFBE4FF4803303FA01F10368C1
:1089D000C3F84813C3F80813704750318900006882
:1089E00089B2FFF7DFBE0368D3F8040570470000C3
:1089F00090F9043001215A0903F01F0301FA03F32F
:108A00004032024941F82230704700BF00E100E0E7
:108A1000024B034A1B681068184700BF282B002030
:108A2000202B00204FF0704393F8E02F062A10D13E
:108A3000D3F8E42F12070CD1D3F8E80F00F0F003BD
:108A4000302B08D000F0E000A0F14003584258411C
:108A5000704700207047012070474FF0704393F833
:108A6000E02F062A0CD1D3F8E42F120708D1D3F84F
:108A7000E80F00F0F000A0F1300358425841704771
:108A80000020704708B5FFF7CDFF40B14FF080538D
:108A9000884AD3F82433C3F30423C2F84035FFF7E0
:108AA000DCFF10B1844B854A5A67FFF7BBFF48B122
:108AB0004FF080534FF08042D3F84432C3F3423337
:108AC000C2F83C35FFF7C9FF30B17D4AD2F8FC301F
:108AD00023F08073C2F8FC30FFF7A4FF40B14FF0E1
:108AE00080430022C3F80C21C3F81021C3F83825B5
:108AF000FFF7B3FF20B14FF080430322C3F8A02556
:108B0000FFF7ABFF60B16F4B0522C3F810260122BF
:108B1000C3F888260022C3F818263F22C3F814267B
:108B20004FF0704393F8E02F062A50D1D3F8E42F8A
:108B300011074CD1D3F8E83F03F0F003502B46D196
:108B40004FF08052604BD2F80414C3F82015D2F8CD
:108B50000814C3F82415D2F80C14C3F82815D2F859
:108B60001014C3F82C15D2F81414C3F83015D2F829
:108B70001814C3F83415D2F81C14C3F84015D2F8F1
:108B80002014C3F84415D2F82414C3F84815D2F8B9
:108B90002814C3F84C15D2F82C14C3F85015D2F889
:108BA0003014C3F85415D2F83414C3F86015D2F851
:108BB0003814C3F86415D2F83C14C3F86815D2F819
:108BC0004014C3F86C15D2F84424C3F87025FFF79D
:108BD00029FF48B14FF080534FF08042D3F858320C
:108BE00003F04F03C2F8E43EFFF71CFF48B14FF01B
:108BF0008043D3F80024D20744BF6FF00102C3F8CA
:108C000000244FF08053D3F83021062A0AD1D3F83C
:108C10003431062B01BF2D4AD2F83C3743F4806330
:108C2000C2F83C37264AD2F8883043F47003C2F8C1
:108C30008830BFF34F8FBFF36F8F4FF01023D3F8FF
:108C40000022002A03DBD3F80432002B2EDA204B5B
:108C50000122C3F80425D3F80024002AFBD04FF0EA
:108C600010221521C2F80012D3F80024002AFBD0EC
:108C70004FF010231522C3F80422154BD3F800241B
:108C8000002AFBD00022C3F80425D3F80024002AD0
:108C9000FBD0BFF34F8F0A490E4BCA6802F4E06263
:108CA0001343CB60BFF34F8F00BFFDE70A4B0B4A66
:108CB0001A6008BD0030014000C007400DF0ADBA99
:108CC00000ED00E00050004000C0004000100040F7
:108CD00000E001400400FA05CC2200200090D003FF
:108CE000054A4FF0A043105CD3F8043523FA00F096
:108CF000C04300F001007047CA320300044B1A5C05
:108D0000012393404FF0A042C2F80C35704700BFDA
:108D1000CA320300044B1A5C012393404FF0A04277
:108D2000C2F80835704700BFCA32030008B50020FA
:108D3000FFF7F0FF0120FFF7EDFF0220FFF7EAFF4A
:108D4000BDE808400320FFF7E5BF08B50020FFF7A6
:108D5000D5FF0120FFF7D2FF0220FFF7CFFFBDE8CC
:108D600008400320FFF7CABF074A4FF0A041105C3C
:108D7000D1F804350122824022EA03001340C1F8F1
:108D80000805C1F80C357047CA320300014B185C66
:108D9000704700BFC632030038B5074C051E04F10A
:108DA000080318BF1C4623682BB11A6822605B6851
:108DB00028469847F7E738BD342B002020B9054BEB
:108DC00001225A70FFF7E8BF012802D1014A9070D2
:108DD000F8E770472C2B002020B9034B01225A7072
:108DE000FFF7DABF704700BF2C2B002038B50B4CC3
:108DF000237883B90A486360A3602361E36000F0CD
:108E0000CBF8054606F01CFF08B900F0D1F80123A5
:108E10002370284638BD8525FBE700BF2C2B00209A
:108E2000BD8D020037B50B4C00230DF107008DF806
:108E30000730FDF745FFE368013BE360E56815B9DE
:108E400000F0C8F8A5709DF80700FDF75DFF03B0BE
:108E500030BD00BF2C2B0020012813B508D00328FB
:108E60001CD018B9114B0122C3F8802002B010BDEC
:108E70000F4C00230DF107008DF80730FDF720FFA0
:108E800023780BB9FFF7B2FFE3689DF807000133C1
:108E9000E3600123A370FDF737FFE7E700F088F8F0
:108EA00002B0BDE81040FFF7BDBF00BF00E100E029
:108EB0002C2B00201FB503788DF8003043680193F8
:108EC00083688DF80830C368054A0393054B6846EC
:108ED00053F8213052F82110984705B05DF804FB93
:108EE000402B0020442B00201FB503788DF8003064
:108EF0004368019383688DF80830C368054A03937B
:108F0000054B684653F8213052F82110984705B0B8
:108F10005DF804FB402B0020442B0020F0B5194BDA
:108F200090F800C091F81DE043F82C20164B16462F
:108F30000A6943F82C20154B03F80CE00C46074651
:108F40000FCC89B06D460FC594E80F0085E80F007F
:108F5000CDF810C0BEF1000F09D0002E0C4A6946B2
:108F600008BF3246381D00F0DBFC09B0F0BD002E12
:108F7000084A694608BF324607F10C0000F09CFA27
:108F8000F3E700BF442B0020402B0020482B00209B
:108F9000B58E0200E98E0200044A137923B901213B
:108FA0001060918018467047852070474C2B002038
:108FB000074B1A68D2075FBFC02283F80023012243
:108FC0001A604FF080430122C3F81825704700BF94
:108FD00000E100E04FF080430122DA60D3F818246A
:108FE000D203FBD4704700004FF0804307B5D3F89D
:108FF00000217AB10022C3F80021D3F800210092A9
:10900000009A0122C3F808230F4B587910B95A71FE
:109010001B6898474FF08043D3F8042182B10022A7
:10902000C3F80421D3F804210192019A0222C3F863
:109030000823054B1B68012003B05DF804EB1847BB
:1090400003B05DF804FB00BF4C2B002000F1804012
:1090500000F5C040002382B0036003680193019BC8
:1090600002B07047800000F1A040D0F8002722F441
:109070004032C0F80027D0F8003743EA0141C0F879
:1090800000177047C208012300F0070003FA00F040
:109090008B5C184388547047054B4FF0FF3207280C
:1090A00043F8202084BFC01880F84820704700BFD4
:1090B000542B002038B5144D95F858400CBB202295
:1090C000FF2105F1300008F077FCE0B20134FFF732
:1090D000E3FF0C2CF9D10D4B0022C0216A6583F807
:1090E0000613402119604FF4BE70FFF7AFFF084B25
:1090F0004FF00041C3F80413012385F8583010469F
:1091000038BD0820FCE700BF542B002000E100E040
:10911000006000402DE9F04F87B00024584D0394C3
:109120004FF48072012102F1804303F5C04390B2F5
:109130001B68012B06D1D5F804330B4202D0FFF790
:1091400085FF0C430432B2F5907F4FEA4101EAD12A
:109150004B4BD3F87C31012B0AD14FF4BE70FFF793
:1091600075FF4FF0A04344F00044D3F8103503934B
:10917000E3B2D3B1434F00250126344210D0AB00F7
:1091800003F1804303F5C043D3F81005D3F810155D
:1091900057F8253023B1C1F30141C0F304209847AB
:1091A0000135082D4FEA4606E7D1002C61DA00228E
:1091B0004FF0FF33CDE90423DFF8C880DFF8C89013
:1091C00000273E464FF0A04B19F9014B631C45D0D8
:1091D000C4F3C2030122E5B204F03F0004F0070427
:1091E00002FA04F406AA134413F8042C224235D0E0
:1091F00008EB0002AD0992F9302058F822A0BAF12C
:10920000000F09D1032D29D104A901930090FFF784
:1092100039FFDDE9000301E0032DF5D000F5E07131
:1092200013F80C3C5BF821102342C1F3014105D037
:10923000022913D1032D0CD1294604E003290DD1B5
:10924000032D06D1022100900136FFF70BFF009895
:10925000F6B2BAF1000F01D02946D0470137042FEA
:10926000B2D136B14FF0A043039AD3F810359342F0
:1092700002D107B0BDE8F08F0393049B05939DE7EF
:1092800000600040542B0020A42B0020014B1B68E1
:10929000184700BFB02B00200E4B984237B50C4644
:1092A00002D0002003B030BD00230DF107008DF87F
:1092B0000730FDF705FD084B1D7915B901221C602B
:1092C0001A719DF80700FDF71FFD002DE9D0112050
:1092D000E8E700BF00200040B02B002000234350EF
:1092E00082B043580193019B02B070470A4610B503
:1092F0004FF48E71FFF7F2FF136A9168C95C136A2D
:1093000001331362C0F81C1510BD024608B5006891
:109310004FF49271FFF7E2FF10684FF48471FFF78A
:10932000DDFF136801221A6008BD8B690A4610B57B
:109330004FF4847123B9FFF7D1FFD0F8183510BD71
:10934000FFF7CCFF536AD168D0F81805C854536AA8
:1093500001335362F3E700001FB501238DF800309D
:10936000044BCDE90110D3E900126846904705B0DF
:109370005DF804FBB82B002030B54D4DD5F8043313
:109380009A0585B051D5D5F82431002B4DD04FF436
:1093900092712846FFF7A2FF4FF40173C5F8083316
:1093A000444B93F829200AB901226A6040490222FD
:1093B0008DF80020D1F88024C1F8802403929A69A6
:1093C0000292DA6801920022C3E906226846D3E9D4
:1093D000001290473648D0F81C315BB1354A5169CC
:1093E000136A99424DD992F82830002B49D1114681
:1093F000FFF77CFF2E48D0F84431002B56D04FF4B5
:10940000A271FFF76BFF2B4B93F829200AB10122C1
:1094100002609A69002A49D0586AD96800229A6184
:1094200005B0BDE83040FFF797BFD5F804335B07C0
:10943000D0D5D5F80831002BCCD01E4C1C48214685
:10944000FFF773FF636AA2699A42C3D1E369E168D7
:109450004BB1A3612369E3600023606AE361636247
:10946000FFF77AFFB6E794F829300BB901236B6058
:109470000F4B4FF40172C3F808230023606AA36105
:10948000EEE70B484FF48E71FFF728FF5369002B6E
:10949000B0D051690291002391688DF8003001919C
:1094A00053616846D2E900139847A3E705B030BD81
:1094B00000200040B82B00202DE9F843564D90F8CD
:1094C00004802C2303FB0853064693F82A300C46ED
:1094D0009146002B40F09B8050490068FFF7DCFE6E
:1094E0000746002840F0958022683068511C0BD058
:1094F0004FF0A04101239340C1F8083502F5E07315
:109500004FF0030C41F823C061684B1C1FBF01F5ED
:10951000E0734FF0A04C4FF0000E4CF823E0A3692D
:10952000C0F8243594F814C0637DBCF1010F4CEAF7
:109530000303C0F86C35C0F81415C0F80C251DD114
:10954000A268531C1FBF02F5E0734FF0A0414FF01B
:10955000000C41F823C0E368591C0BD04FF0A04C1D
:1095600001219940CCF8081503F5E0714FF0030E86
:109570004CF821E0C0F80835C0F810252C2202FB79
:1095800008F2AB18C3F804902369AB50B9F1000F8F
:109590002AD04FF48E71247FFFF7A0FE30684FF47D
:1095A000A271FFF79BFE32681D4BC2F80433130B08
:1095B00042F30732002AA8BF02F160404FEA44118B
:1095C000BABF184803F00F0400F56140C9B2B4BF38
:1095D000015580F8001303F01F03012101FA03F382
:1095E0005209114941F8223033680422C3F800259A
:1095F0002C2303FB08530022C3E9062283F8292009
:109600005A61012283F82A203846BDE8F8830827EA
:10961000FAE71127F8E700BFB82B00207993020082
:109620008000020014ED00E000E100E00279044B4C
:109630002C2101FB02335869003818BF0120704704
:10964000B82B00202DE9F84F064690F80480894693
:109650009246FFF7EBFF044600283CD1204F2C2513
:1096600008FB057B4FF48E71CBF814A0CBF8089063
:10967000CBF820008BF828003068FFF72FFE306809
:10968000012383605946FFF731FEDBF804305D4665
:109690001BBB3068DBF814402B6A9C4211D833683E
:1096A000D3F81C21002AFBD00122DA6000202C23F1
:1096B00003FB087700237B61BDE8F88F95F828301D
:1096C0003BB9D0F81C31002BF8D05946FFF70EFEFD
:1096D000E2E70F20EBE71120EEE72046ECE700BFC2
:1096E000B82B00202DE9F0473A4D07792C2303FBD6
:1096F000075306465C6824B103684FF40170C3F851
:1097000008032C2303FB0753986950B1D86900283C
:1097100041D024B133684FF40172C3F804231124FB
:1097200036E09A61D9605862D8612C2303FB075355
:1097300093F829301BB910B93046FFF7E6FD4FF01A
:109740002C0808FB075A3068DAF80430002B37D1B0
:109750004FF4A271D046FFF7C1FD3068D0F82491D4
:10976000D0F80831D0F84441CBB914B9B9F1000FA1
:10977000F3D02C2303FB07550023AB61B9F1000F95
:1097800024D12CBB95F8291033680122B1B11A609D
:109790002046BDE8F0871961DA610120C5E7B9F11B
:1097A000000FE6D1002CE4D14146FFF7BEFDDAF808
:1097B0002430DAF818209A42CFD8DAE75A60E7E77F
:1097C0004FF40173C0F804330024E1E70324DFE71A
:1097D0000F24DDE7B82B00200023435082B043580C
:1097E0000193019B02B070471FB501238DF8003033
:1097F000044BCDE90110D3E900126846904705B04B
:109800005DF804FBE42B00207FB5434AD2F82461C5
:10981000002E60D010464FF49271FFF7DDFF022357
:109820008DF80030D2F88034C2F880340393D2F837
:109830003C350293394BDA6801920022C3E90622D3
:109840006846D3E9001290473348D0F8443173B1E9
:109850004FF4A271FFF7C0FF304B9A693AB1002272
:10986000C3E90622D968D0F83C05FFF7BDFF2A48B6
:10987000D0F82031ABB14FF49071FFF7ADFF012369
:10988000C360264B5A6962B1D0F84C150291002290
:1098900099688DF8002001915A616846D3E9001259
:1098A00090471D48D0F858319BB14FF4AC71FFF789
:1098B00093FF1A4B5A6962B1D0F84C1502910022FD
:1098C00099688DF8002001915A616846D3E9001229
:1098D000904704B070BDD2F81031002BB4D04FF4D3
:1098E00088711046FFF778FF0C4BD2F83C05996958
:1098F0008842A9D1DC69D96864B1D2F8005225F058
:109900002005C2F800521A699C61DA60DE61FFF737
:109910006BFF99E79C61FAE700200040E42B0020F0
:109920002DE9F8435C4E90F80480242303FB086380
:10993000044693F820300D469146002B40F0A88055
:1099400056490068FFF7A8FC0746002840F0A280AF
:109950002A682068511C0BD04FF0A041012393408E
:10996000C1F8083502F5E0734FF0030C41F823C04D
:1099700069684B1C1FBF01F5E0734FF0A04C4FF01E
:10998000000E4CF823E0AB69C0F8243595F814C0FC
:109990006B7DBCF1010F4CEA0303C0F86C35C0F8D5
:1099A0000C25C0F814151DD1AA68531C1FBF02F561
:1099B000E0734FF0A0414FF0000C41F823C0EB687A
:1099C000591C0BD04FF0A04C01219940CCF8081540
:1099D00003F5E0714FF0030E4CF821E0C0F80835B4
:1099E000C0F81025242202FB08F2B318C3F8049033
:1099F0002B69B350B9F1000F39D04FF488712A7F29
:109A0000FFF7EAFE20684FF49071FFF7E5FE20684B
:109A10004FF49271FFF7E0FE20684FF4A271FFF758
:109A2000DBFE20684FF4AC71FFF7D6FE23681C49BB
:109A3000C3F80413190B43F30733002BAEBF03F134
:109A4000604001F00F0517484FEA4212A8BF00F529
:109A50006140D2B2B4BF425580F8002301F01F012B
:109A6000012202FA01F15B090F4A42F82310236830
:109A70000822C3F80025242303FB08660023C6E957
:109A800006337361012386F820303846BDE8F88339
:109A90000827FAE71127F8E7E42B002009980200CD
:109AA0001003420014ED00E000E100E00279044BF5
:109AB000242101FB02335869003818BF0120704788
:109AC000E42B002001F06043B3F1005F2DE9F04783
:109AD0000646884692463BD190F80490FFF7E6FF91
:109AE0000446002836D11D4F3068242505FB097532
:109AF0004FF49071C5F814A0C5F80880FFF76CFE0C
:109B00004FF4AC713068FFF767FE33686A69A96883
:109B1000C3F84415C3F8482501229A606A68DAB987
:109B2000D3F82021D3F858011AB90028F8D00F2013
:109B300007E00028FBD10122DA60D3F85821002A7F
:109B4000FBD0242303FB097700237B61BDE8F0876A
:109B50001020FBE71120F9E72046F7E7E42B00206F
:109B6000F8B501F06043B3F1005F04460F465ED1E3
:109B70000379304D242101FB0351496821B100686C
:109B80004FF40476C0F80863242000FB03539E6959
:109B900056B1D869002839D021B123684FF4047236
:109BA000C3F80423112030E09A61DF60DE61206891
:109BB0004FF48871FFF710FE20684FF4A271FFF791
:109BC0000BFE2368C3F83475C3F8382516BB012291
:109BD0001A602479242202FB045252680ABBD3F88B
:109BE0001011D3F84421D3F82401114302D10028E5
:109BF000F5D00A46242303FB04550023984218BFDE
:109C000003209A42AB6118BF0F20F8BD1F61DA61D3
:109C10000126CCE7D3F8002242F02002C3F800224C
:109C2000D7E74FF40472C3F804230020EDE71020B7
:109C3000EBE700BFE42B00200023435082B04358E1
:109C40000193019B02B070474B6B8A6A934208D222
:109C50004A6AD25CC0F81C2501334B6301231846C5
:109C6000704791F82C301BB10123C3610023F6E744
:109C70000A6A12F0400F4FF0010215BFC261426143
:109C800081F82D201346EAE791F82F20F8B5054614
:109C90000C46002A5DD1D0F824314E6B8F6AB3B1E7
:109CA0004FF49271FFF7C8FF01236B6184F82F30E6
:109CB000BE424CD1D5F80431002B48D04FF482710C
:109CC00028460022FFF7B8FF84F82D2010E0D0F8D6
:109CD0001C317BB14FF48E71FFF7AEFFD0F8243109
:109CE000002BDDD12146FFF7AFFF02460028DFD170
:109CF0001046F8BDD0F80831002BD9D04FF484714C
:109D0000FFF79AFFD0F82431002BC9D1636BA16A09
:109D10008B42CDD2616AD0F81805C854636BA16A32
:109D20000133481E8342636308D1206A40061DD474
:109D30000223C5F8003201232B62B9E78B42FAD126
:109D4000236A5B06B4D5022384F82D30D0E70122C4
:109D5000CEE74FF49271FFF76FFF4FF48E71FFF76C
:109D60006BFF4FF48471FFF767FFA3E78B42E2D1EB
:109D7000E9E7000037B5314B01930D464FF482718E
:109D8000FFF75AFF4FF49271FFF756FF4FF48E71B1
:109D9000FFF752FF4FF48471FFF74EFF0023C0F826
:109DA00000326B6385F82F300123036295F82D2074
:109DB0009A4218BF836029460446FFF745FF2B6887
:109DC00083B140F28623AB60AB68C4F80433002053
:109DD00003B030BD29462046FFF756FF28B1019B4E
:109DE000013B0193019B002BF4DC95F82F305BB90C
:109DF0000020019B002BEBDC0023C4F80035052379
:109E0000C4F800350320E3E7D4F8C434C4F8C434FC
:109E1000002BEDD013F0010F14BF4FF402400320CC
:109E200048F2012213F0020F18BF104613F0040F7E
:109E300048F2022318BF1846DBE700BFA0860100E6
:109E400037B5344B01930D464FF48271FFF7F4FEA2
:109E50004FF49271FFF7F0FE4FF48E71FFF7ECFEB6
:109E60004FF48471FFF7E8FE00236B6385F82F3011
:109E7000AB6A012B044617D12B6A5B0614D402236C
:109E8000C4F800320123236295F82D20022A18BF5E
:109E900023602B6893B140F28623AB60AB68C4F8B3
:109EA0000433002003B030BD0123E9E729462046F2
:109EB000FFF7EAFE28B1019B013B0193019B002BB8
:109EC000F4DC95F82F305BB90020019B002BE9DC16
:109ED0000023C4F800350523C4F800350320E1E76A
:109EE000D4F8C434C4F8C434002BEDD013F0010FFF
:109EF00014BF4FF40240032048F2012213F0020F76
:109F000018BF104613F0040F48F2022318BF18467A
:109F1000DBE700BFA0860100F0B587B007460C461E
:109F2000FFF7B2FE002843D194F82FE0D4F820C008
:109F3000BEF1000F1FD1237B9A1E012A1BD8616A34
:109F4000A269914217D1E2696262CCF3401C626956
:109F5000A262032B84F82CC084F82DE021463846F9
:109F600004D107B0BDE8F040FFF704BF07B0BDE87B
:109F7000F040FFF765BF04F10C060FCE01AD0FC531
:109F800033682B60BEF1000F1CD0D7F8C434C7F87B
:109F9000C43499070ED501238DF8003000231CF03E
:109FA000040F84F8303003D1D4E900316846984773
:109FB00007B0F0BD5A0701D50223EDE7DB07EDD569
:109FC0000323E9E78DF800E0E8E7000001490248D3
:109FD000FFF7A2BF082C00200030004002494FF0DC
:109FE0004020FFF799BF00BF442C00202DE9F84F17
:109FF0000779354E4FF03C0A0AFB07FA06EB0A05D3
:10A000009B4695F82E3080460C469146002B57D142
:10A010002E4B006853F82710FFF73EF9002851D166
:10A020002168637B85F8383001F5E0724FF0A0437A
:10A03000A860C5F804B085F8300085F82D0085F8D3
:10A04000310040F20C6546F80A9043F822506268ED
:10A0500002F5E07C43F82C50D8F80030C3F808151E
:10A06000C3F80C25A268C3F82425B9F1000F1FD04E
:10A0700043F307310029227BB4BF154C01F1604442
:10A08000C3F30733B8BF03F00F054FEA4212A8BF6E
:10A0900004F56144D2B2B4BF625584F8002303F0E2
:10A0A0001F03012202FA03F349090A4A42F8213048
:10A0B0003C2303FB0766012386F82E30BDE8F88FAA
:10A0C0000820FBE71120F9E7082C0020F4320300F8
:10A0D00014ED00E000E100E0036802790521C3F817
:10A0E0000015044B3C2101FB0233022283F82E2091
:10A0F000704700BF082C00202DE9F047314F04794C
:10A10000D0F800903C2303FB04730D4693F82D30E8
:10A11000012B944604D10B78012B06D1082011E0C5
:10A12000022B02D10B78012BF8D13C26264BC9F823
:10A13000083306FB047696F830302BB1B368C9F8C3
:10A1400004331120BDE8F0878CF00403C3F38003CF
:10A1500086F83030C6F820C0A846B8E80F0006F1EF
:10A160000C0EAEE80F00D8F80030CEF800306B6867
:10A17000B362EB6873626B78C9F888352B78C4EBEF
:10A18000041A012B07EB8A0A17D09BB9CCF3401CA9
:10A190003C2303FB0473514683F82CC04846FFF769
:10A1A000E9FD3C235C433A193B59002BCAD182F8A4
:10A1B0003030C7E74FF0010CEAE751464846FFF759
:10A1C0003FFEEEE7082C00208642040010B586B062
:10A1D0000024CDE902349DF820308DF80510A3420B
:10A1E000CDE9042401A914BF202222468DF80440A1
:10A1F000FFF782FF06B010BD10B586B001240293B0
:10A200000023CDE903328DF805101A4601A98DF817
:10A2100004400593FFF770FF06B010BD1FB503782B
:10A220008DF800308388ADF8043083688DF80630EF
:10A23000C3688DF80730036902934369054A0393A5
:10A24000054B684653F8213052F82110984705B065
:10A250005DF804FB802C0020882C0020024B4FF47A
:10A26000807043F001031847003303002DE9F047E5
:10A27000154690F80090324A42F82950314A42F887
:10A2800029304B7B07460C466BB30868496882004F
:10A290008B0002F1A04203F1A04340F20C66C2F829
:10A2A00000674FF0010AC3F800674FF0A0460AFAB2
:10A2B00000F00AFA01F1C6F80805C6F8081540F2E0
:10A2C0000D61C2F80017C3F80017FFF7C7FF4FF082
:10A2D0000008D6F81025636822FA03F3DB070DD5D2
:10A2E000B8F1000F1DD1002D174A4B4608BF2A4672
:10A2F0002146381DBDE8F047FFF778BE23680AFA0B
:10A3000003F3C6F80C35FFF7A9FF23680AFA03F335
:10A31000C6F8083508F10108FFF7A0FFB8F1090FEA
:10A32000D7D1636801264FF0A04806FA03F3C8F8B6
:10A330000C35FFF793FF63689E40C8F80865D2E7C5
:10A34000882C0020802C00201DA2020000F18040FB
:10A3500000F5E040002382B0036003680193019B95
:10A3600002B07047F0B5524B524CD3F8043185B06F
:10A37000002B3DD094F82E204FF48270FFF7E6FFBB
:10A380002AB394F82F3013BB494AD2F80031002B7E
:10A3900032D04FF48070FFF7D9FF638B94F82D0013
:10A3A000834250D921891B1A9BB289B26383CB1A8D
:10A3B000616801EB4303C2F82C36C2F830064FF453
:10A3C0008270FFF7C3FF3A4B01225A6014E06368C2
:10A3D00002932389ADF80C30E36800218DF8041056
:10A3E00033BB2374236801A89847002384F82F30D7
:10A3F00094F82E30002BC7D12D4BD3F810315BB120
:10A400004FF48870FFF7A2FF0023237402238DF816
:10A41000043001A823689847254BD3F81431EBB1D9
:10A420004FF48A70FFF792FF0023237405B0F0BD4C
:10A43000208B608363602081E160002AD2D11C4BB5
:10A4400001221A60CEE7BAD1E368012184F82F1007
:10A4500013B100216183AEE76383B0E766694FF013
:10A4600000470125002EE1D0B6FA86F227FA02F362
:10A470004632920026EA030602F1804303F5E043E8
:10A480001B68002BEED01046A2F58C72FFF75EFF22
:10A49000D30882F00402C2F380028DF808308DF8F0
:10A4A000045023688DF8092001A89847DAE700BF17
:10A4B00000700040902C002008B5094B1B7853B168
:10A4C0000020FEF727FC0120FEF724FCBDE8084031
:10A4D0000320FEF71FBCBDE80840FEF727BC00BF05
:10A4E000C02C0020F8B57A4C237805461BB1002318
:10A4F0002370FFF7E1FF172D00F28780DFE805F0FA
:10A500000C1717425364757F878C878C949999999F
:10A510009999C3C8D0D8E3E3FFF7CEFF6D48FCF7A5
:10A52000FAFA6D4B002204461A702046F8BD00204E
:10A53000FEF7D6FBF0B10020FEF7ECFB022D0CBFBE
:10A540004FF4E1644FF47A64634B1D7000254FF4BF
:10A5500000464FF47A7029464FF4FA620023E4FB78
:10A56000060107F0C9F82A460146BDE8F8405948F7
:10A57000FCF7B9BAFEF7C2FB022D0CBFC8244FF49A
:10A58000C874E1E70020FEF7ABFB40B10020FEF706
:10A59000C1FB4FF44874504B03221A70D6E7FEF704
:10A5A000ADFBC824F7E70020FEF79AFB38B1002086
:10A5B000FEF7B0FB4FF47A64474B0422EDE7FEF759
:10A5C0009DFB4FF4C874F7E70020FEF789FB48B104
:10A5D0000020FEF79FFB404B05221A7040F6CD414C
:10A5E0000022C2E7FEF78AFBF5E70020FEF7BCFB7E
:10A5F000394B06221A70002240F26661B5E700204E
:10A60000FEF77CFB344B07221A7000248DE70120F3
:10A610002070FEF7A9FBEEE701202070FEF7A4FBF7
:10A6200000224FF40051A0E7FEF78FFB2A4B0C22CB
:10A63000EAE72A482A4EFCF76EFAD5F111050446DE
:10A640001CD0D8B9012D13D0C820454321464FF462
:10A6500000474FF47A704FF4FA620023C5FB0701FC
:10A6600007F04AF8224601461C48FCF73CFA04462B
:10A670000220FEF743FB0123337056E70220FEF76A
:10A6800049FB0023F8E7FFF717FF134B1222BBE744
:10A69000FFF712FF0020FEF731FB0F4B1322B3E749
:10A6A000FFF70AFF0120FEF729FB0B4B1422ABE753
:10A6B000FFF702FF0020FEF721FB0120FEF71EFB43
:10A6C000054B1522A0E7FEF740FB034B1D709CE7EE
:10A6D000182D0020E82C0020192D0020C82C002067
:10A6E000C02C002010B5002914BF03240024FEF75D
:10A6F0004DFB800000F1A040D0F8002722F440324A
:10A70000C0F80027D0F8003743EA0443C0F8003708
:10A71000002010BD044B1B6813F0010301D0FFF7AC
:10A72000E1BE1846704700BF142D0020032811D841
:10A73000012A0AD101290FD100F10E02D2B20D4B2C
:10A7400000EB40001A54002070470129F7D002297D
:10A7500004D049B1072070470022F8E7054B00EB11
:10A76000400018444270EEE7024B00EB40001844F2
:10A770008270E8E7082D0020032802D80121FFF7A6
:10A78000B1BF0620704708B5012202210020FFF763
:10A79000CDFF08B1072810D1072202210120FFF7C1
:10A7A000C5FF08B1072808D100210A220846FFF793
:10A7B000BDFF10B1072808BF002008BD0388102B7B
:10A7C00010B502D0112B1ED010BD1A4C2168B1B9A2
:10A7D00001220846FFF7AAFF08B1072824D1072263
:10A7E00002210120FFF7A2FF08B107281CD1042293
:10A7F00002210020FFF79AFF08B1072814D123682F
:10A8000001332360E0E70B4A1368013B1360002B20
:10A81000DAD1FFF7B8FF0028D6D0074B1B68002B12
:10A82000D2D0BDE810401847034B1B68002BE6D080
:10A830009847E4E7202D00201C2D002008B50020BB
:10A84000FFF79AFF08B1062806D10120FFF794FF11
:10A8500010B1062808BF002008BD76DF70477ADFF8
:10A8600070477CDF70478FDF704733DF704770477A
:10A870004FF0A04170B54FF080431D4CC1F80C352E
:10A8800023680022D1F81055AD01184603F10103E9
:10A8900027D402B1206021681648174D07F032F81E
:10A8A0004FF0A0414FF08043C1F808352B680022DB
:10A8B000D1F81065B601184603F1010313D502B1B2
:10A8C000286029680B4807F01DF821684FF0A04365
:10A8D0004FF0805249B1C3F8082500232B60236054
:10A8E00070BD0122CEE70122E2E7C3F80C25F4E7B0
:10A8F000644900202C33030048490020474B484955
:10A900001A680132F0B51A600A68464F464E474D44
:10A91000474C01320A601A68202A85B018D10022FB
:10A920001A603B6801333B60424B1B7883B142485D
:10A93000DFF80CE1396832682B680068D4F800C091
:10A94000DEF800E00090CDE901CE3C4806F0DAFFE9
:10A950003B683C2B04D100233B60336801333360F8
:10A9600033683C2B04D1002333602B6801332B6008
:10A970002B68182B05D1304A00232B601368013354
:10A9800013602368013B0B2B29D8DFE803F02D0669
:10A990002D362D362D2D362D363A29490A680B686D
:10A9A0000968642093FBF0F500FB1533003BC2F30C
:10A9B000010218BF0123002A18BF00231E4A33B921
:10A9C0004FF4C87391FBF3F003FB101149B91368FE
:10A9D0001D2B04D10123136023680133236005B0CC
:10A9E000F0BD13681C2BF4E7134B1A681F2AF6D12D
:10A9F00001221A6023681344F0E70F4B1A681E2ADD
:10AA0000F5E70D4A13681F2BE9D1012313600C4AA7
:10AA10002360136801331360E1E700BF1C5000207E
:10AA20006849002018500020684F002098490020F5
:10AA3000DC22002020500020D02200200C33030014
:10AA4000A4500020FBF754BF2DE9F843334D344E9A
:10AA5000344F00242B68A3422EDA334C2368052B95
:10AA600008D13248037803F0FF051BB9304906F0DE
:10AA7000BEF8256023680F2B07D12C490B7823B132
:10AA80002B4806F0A5F8002323602A4D2B68052BE0
:10AA900004D1294806F0C1F800232B60264B1B780F
:10AAA00013B12B6801332B60214B1B7813B1236842
:10AAB00001332360BDE8F8831C2303FB0463D3F850
:10AAC00004909A68D3F80CE0D3F810C058699969DB
:10AAD000D7F8008042EA09231BB243451BD1174B2C
:10AAE0001A684FFA8EF3934215D1154B1A684FFA34
:10AAF0008CF393420FD1134B1A6843B293420AD19D
:10AB0000114B1A684BB2934205D10948037813B927
:10AB1000064906F05DF801349CE700BFE022002002
:10AB2000442D0020A4500020704F00206C4F0020C6
:10AB30006D4F0020282D0020252D0020DC22002034
:10AB4000D022002098490020684F002008B50B4B08
:10AB50000B4819784FF6FE7205F033FC30F008020E
:10AB60000BD020F00202112A07D043F2014290429A
:10AB700003D0BDE80840FBF7BBBE08BD4449002038
:10AB8000384E0020024B1B780BB105F09BBE70477E
:10AB9000422D00201B4B1B7813B58BB31A4C20465B
:10ABA00005F038FFE3888DF8003023898DF80130F7
:10ABB00063898DF80230A3898DF80330E3898DF81D
:10ABC0000430238A8DF80530104B11481A886946E5
:10ABD00005F00CFB30F0080312D043F20203984258
:10ABE0000ED043F2014398420AD00A4A0A4B0B495D
:10ABF0009B1ADB081B04024643F00300FBF736FEFA
:10AC000002B010BD422D00202E2D0020D8220020A1
:10AC1000B04E0020082A0300402A03002533030019
:10AC20001FB5424B1B78002B3DD0414C414B424A53
:10AC30004249204606F008F8237B8DF80430637BF8
:10AC40008DF80530A37B8DF80630E37B8DF8073057
:10AC5000237C8DF80830637C8DF80930A37C8DF857
:10AC60000A30E37C8DF80B30237D8DF80C30344BAB
:10AC700034481A8801A905F0D3FA30F0080312D03D
:10AC800043F2020398420ED043F2014398420AD0A5
:10AC90002D4A2E4B2E499B1ADB081B04024643F01B
:10ACA0000300FBF7E3FD2B4B1B78002B3CD0204C23
:10ACB000294A2A49204606F03BF9237B8DF80430C7
:10ACC000637B8DF80530A37B8DF80630E37B8DF830
:10ACD0000730237C8DF80830637C8DF80930A37C25
:10ACE0008DF80A30E37C8DF80B30237D8DF80C3025
:10ACF000134B14481A8801A905F0ACFA30F0080388
:10AD000012D043F2020398420ED043F2014398421C
:10AD10000AD00D4A0D4B0E499B1ADB081B04024654
:10AD200043F00300FBF7A2FD04B010BD242D00206A
:10AD30004C49002068490020744900206C490020DB
:10AD4000D8220020B04E0020082A0300402A030029
:10AD5000253303002C2D00209C490020744F002037
:10AD60000388212B13B5044627D005D8102B14D007
:10AD7000112B0CD002B010BD3B2B36D0562BF9D185
:10AD80002148224B2249C01AC008000433E0214860
:10AD900002B0BDE8104006F0B5BD1F4806F0B2FD98
:10ADA0001E4BA1881E48198002F0A2FC0028E1D0A9
:10ADB00002B0BDE81040FBF79BBD144B1248194987
:10ADC000C01AC008000440F00400FBF74BFD00234C
:10ADD000A0888DF8043001A98DF80530FFF743FDF8
:10ADE0000028C7D0FBF784FDC4E70748074B0E498E
:10ADF000C01AC008000440F00400FBF733FDA0882F
:10AE00001321FFF72AFDD1E7402A0300082A030097
:10AE100073330300313303003F330300D822002093
:10AE2000384F00204A3303005E33030008B530B1C9
:10AE3000032815D1BDE808400A4806F063BDFFF7B6
:10AE400069FC08B1FBF754FDFFF7F8FC08B1FBF70C
:10AE50004FFDFFF70AFD18B1BDE80840FBF748BDFC
:10AE600008BD00BF8833030008B503784BB9054B14
:10AE70003B211888FFF7F1FC18B1BDE80840FBF74B
:10AE800037BD08BDD822002008B50548032100F0D1
:10AE900032FE18B1BDE80840FBF72ABD08BD00BF6F
:10AEA000C049002010B5044603F0F2FE204603F02E
:10AEB000CDFC23780C2B03D1BDE81040FFF7E4BF95
:10AEC00010BD7047FBF714BD2DE9F0412B4C2368F2
:10AED0000133064645D12A483FE01C236B43FA580C
:10AEE00096F900309A4228D12B4610E0591C0022D6
:10AEF000C1EBC10EC3EBC3030EEB020057F820C039
:10AF000098180132072A47F820C0F5D10B4622686D
:10AF10009342EBDD96F90010404606F0F3FC002268
:10AF200011462368C3EBC30313440132072A47F8D1
:10AF30002310F6D12368013B2360013523689D422D
:10AF4000CBDD1048104EDFF8488006F0DBFC002512
:10AF50001C2723689D4209DD0C48BDE8F04106F03E
:10AF6000D1BC094FDFF82C800025E7E707FB05F38C
:10AF70004046F15806F0C6FC0135EAE7E022002021
:10AF8000D9330300BE330300442D0020763503007F
:10AF9000D53303009A3303002DE9F0410B780C46BA
:10AFA000072B31D8DFE803F03A43606A4A58040CB3
:10AFB000364806F0A7FC6068BDE8F041FFF784BFA3
:10AFC000334D3448344E06F09DFC2B6860680133E5
:10AFD0002B6000222B68815CC3EBC3031344013256
:10AFE000072A46F82310F5D12C48DFF8E08006F058
:10AFF00089FC00241C272B689C4207DD284806F0AA
:10B0000081FC284B01221A70BDE8F08107FB04F394
:10B010004046F15806F076FC0134ECE7224806F091
:10B0200071FC224B01221A701E4B0022EBE72048D4
:10B0300006F068FC1D4A002313700AE01D4806F064
:10B0400061FC05F0A5FA1C4A002313701B4A01217C
:10B050001170144A1370D7E7194806F053FC05F035
:10B06000DFFA164A0023E7E7164806F04BFC05F026
:10B07000E9FA124A002313700F4AE8E7124806F073
:10B0800041FC05F0CDFA0C4A0023D5E7EB33030071
:10B09000E02200200E340300442D00203134030050
:10B0A00076350300205000204A340300422D002052
:10B0B000733403009D3403002C2D0020242D002028
:10B0C000CA340300F834030026350300D5330300E7
:10B0D00008B5FDF7EFFF08B1FBF70AFC4FF0A043FE
:10B0E0000322C3F85C27C3F87027C3F87427C3F89A
:10B0F0006027C3F878270422C3F864274FF0804202
:10B10000C3F80C2508BD000030B5AF4D0FCDB1B070
:10B1100005AC0FC495E80300AC4BAD4A0193802306
:10B1200084E80300CDE90323029301A90723A94A78
:10B1300005A805F0F5FFA84B0446A8481B1ADB0834
:10B140001B04214643F00300FBF78CFB14B120469F
:10B15000FBF7CEFB4FF480410020FBF7F9F908B173
:10B16000FBF7C6FBFBF738F9FFF7B2FFFBF77EFCF6
:10B1700008B1FBF7BDFB9A4A9A480121FBF7A8FCEE
:10B1800008B1FBF7B5FB984A98480121FBF7A0FCF2
:10B1900008B1FBF7ADFB964A96480121FBF798FCF6
:10B1A00008B1FBF7A5FB944A94480121FBF790FCFA
:10B1B00008B1FBF79DFB924A92480121FBF788FCFE
:10B1C00008B1FBF795FB904A90480121FBF780FC02
:10B1D00008B1FBF78DFB8E4A8E480121FBF778FC06
:10B1E00008B1FBF785FB8C4A8C480121FBF770FC0A
:10B1F00008B1FBF77DFBFDF729FA08B1FBF778FBF7
:10B2000004F0A0FC08B1FBF773FB002305A90120A3
:10B21000059304F077FD08B1FBF76AFB05A804F07D
:10B2200015FE08B1FBF764FB11237D498DF804304E
:10B23000052201A8FFF715FB08B1FBF759FB002316
:10B24000ADF818305023ADF81430A023ADF8163007
:10B2500005A84FF4C873ADF81A30FFF700FB08B12A
:10B26000FBF746FB6F48002102F0A2F808B1FBF79C
:10B270003FFB6D4B6D48059305A902F027FA08B115
:10B28000FBF736FB6A4B6B480593002405A9CDE913
:10B29000064404F0A9FE08B1FBF72AFB0123CDE91F
:10B2A00005448DF8183003F1013362336248079486
:10B2B00005A9089305F011F808B1FBF719FBAC22BA
:10B2C000002105A806F078FB02238DF8143040F227
:10B2D0000163ADF816300123ADF824308DF89030BD
:10B2E0004FF49673554A27935548564B0A9205A931
:10B2F0002E9300F083FB08B1FBF7FAFA50480121C6
:10B3000000F079FB14220DEB0200002106F054FB43
:10B310004FF4F0234FF4A032CDE9062303238DF838
:10B320002030494B0A9305A8484B0B9300F022FEAE
:10B3300008B1FBF7DDFA02F0A1FF08B1FBF7D8FA7C
:10B3400031238DF8143007238DF8153010238DF834
:10B35000163005A803238DF817308DF8183003F048
:10B3600027F808B1FBF7C4FA394803F009F808B127
:10B37000FBF7BEFA05F088F805F028FA354806F024
:10B38000C1FA3548002240F26661FBF7ACFB08B118
:10B39000FBF7AEFA3148002240F23331FBF7A3FB52
:10B3A00008B1FBF7A5FA2E4800224FF40071FBF715
:10B3B0009AFB08B1FBF79CFA2A4800224FF480411F
:10B3C000FBF791FB50E000BF88350300984F002049
:10B3D00021500020C3AE0200402A0300082A0300C7
:10B3E00021AC0200B835030095AB0200A035030084
:10B3F000FDA80200BC35030085AB0200B435030094
:10B400004DAB0200A835030049AA0200A435030091
:10B410006FA80200AC35030071A80200B03503002C
:10B4200055350300E44E002045AA0200384F0020A5
:10B4300099AF0200B04E0020384E0020D4220020E8
:10B44000C04900202DAE020069AE0200C5AE020068
:10B45000A5AE02005B350300F84D0020184F002018
:10B46000484F0020F84E002008B1FBF741FA16487B
:10B4700000224EF66021FBF736FB08B1FBF738FAE5
:10B48000124800224FF47A71FBF72DFB08B1FBF74D
:10B490002FFA0F48002240F26661FBF724FB08B147
:10B4A000FBF726FA0B48002240F6CD41FBF71BFBC9
:10B4B00008B1FBF71DFAFFF7E7FCFBF771F800286E
:10B4C000FBD1FDF7D9F8F8E7184E0020504E0020C8
:10B4D000704E0020904E00206DDF704779DF70477E
:10B4E0007DDF704764DF70472DE9F04F85B00025A0
:10B4F0000E9CBDF83CB0B4F800A001910746904600
:10B500001E46A9463A884A450DDC45B12388013BD1
:10B51000A3EB0A039BB2FF2B3AD806F80A300020AF
:10B5200005B0BDE8F08F7A6852F829000390002238
:10B530000DF10B0103A8FFF7D5FF0028F0D19DF80E
:10B540000B20424521D12288002D14BF002002206B
:10B5500002EB0801014459451ADC3DB9013292B2AF
:10B56000019B2280B35422880132228022880DF16F
:10B570000B01324403A8FFF7B5FF0028D0D1218882
:10B580009DF80B200A442280012509F10109B9E741
:10B590000C20C5E72DE9F341089FBDF8248015462E
:10B5A000CDE90078022204461E46FFF79DFF50B900
:10B5B0003346102229462046CDE9087802B0BDE87E
:10B5C000F041FFF791BF02B0BDE8F0812DE9F04FE7
:10B5D00000231788138090F82D3085B006460D465D
:10B5E00014465BB3082F01D80C2028E102A8FFF70E
:10B5F00073FF002840F023812388DDF8091008221A
:10B60000EA54238801339BB21B222380EA54238807
:10B6100001339BB2EA182380E950BDF80D309380C6
:10B6200023889DF8082006339BB212F0FE0218BF53
:10B6300001222380EA54238801332380B378FBB1AD
:10B6400023880433BB42CFD802A8FFF747FF002866
:10B6500040F0F58023880322EA54238801339BB20B
:10B6600019222380EA542388BDF8082001339BB2B5
:10B67000E9182380EA54120A4A702388023323808F
:10B68000F2789AB12388D91CB942ADD80221E95485
:10B69000238801339BB201212380E95423880B4482
:10B6A0009BB22380EA5423880B4423807268AAB19A
:10B6B0002388D91CB94297D8022192F90020E95475
:10B6C000238801339BB20A212380E9542388013364
:10B6D0009BB22380EA542388013323803389002BD3
:10B6E00040F0A180338A5BB1CDE900472B460722A9
:10B6F000032106F11000FFF74DFF002840F09F8066
:10B70000338B5BB1CDE900472B461522142106F19E
:10B710001800FFF73FFF002840F09180326A002AAE
:10B7200040F09080D6F82480B8F1000F30D0B8F8FF
:10B7300004302188981C8A1C0244BA423FF654AF58
:10B74000FE283FF651AF03336B54238801339BB27D
:10B75000FF222380EA54238801339BB22380B8F868
:10B760000020EA54E918120A4A702088023080B298
:10B770002080B8F804205AB1D8F8081000296BD0FE
:10B78000284406F0F0F82388B8F8042013442380F6
:10B7900096F82C30002B40F09880307800284ED05E
:10B7A0003388012B58D0228802F1020CBC453FF6A9
:10B7B0001BAF012805D17378023313449F42FFF475
:10B7C00013AF023FBF1ABFB202A905EB0C00ADF8E0
:10B7D0000870FFF785FE90BB3178BDF8083002296C
:10B7E00000F0B98072789A4202D39F4280F0B18013
:10B7F000012940F0B280974293B2C0F0AE80ADF81C
:10B8000008300821BDF80830FE2B3FF6EDAE228847
:10B810000133AB542288013292B22280A95422888B
:10B82000134423800BE0CDE900472B46062202217A
:10B8300006F10800FFF7AEFE00283FF453AF05B055
:10B84000BDE8F08FB4F800C00CF10603BB423FF630
:10B85000CBAE1188052901D80720F0E76FF4486EB8
:10B8600001EB0E039BB24FF27D3E7345F4D9538832
:10B87000052BF1D96FF44860181880B27045EBD9E8
:10B880004FF6FF70814201D09942E5D8052305F8B3
:10B890000C30238801339BB212212380E954238882
:10B8A00001339BB223801188E954E818090A4170DA
:10B8B000238802339BB223805288EA54E918120A83
:10B8C0004A702388023323802CE7B36A002BC3D04D
:10B8D0004FF000084FF00C0A4FF0160BB16A5FFAF8
:10B8E00088F20AFB02F201EB0209B9F80430981C55
:10B8F000FE283FF679AE208803332B54238801338A
:10B900009BB2238005F803B0238801339BB22380C8
:10B910008A5AEA54E918120A4A702088023080B222
:10B920002080B9F804205AB1D9F80810002993D022
:10B93000284406F018F82388B9F80420134423801B
:10B9400096F82C2008F101085FFA88F39A42C5D8CE
:10B9500023E7092156E79F42FBD2ADF8087050E774
:10B9600070B5E8B14AB116880024B44203D3051972
:10B970006D789D4208D0A14201D8002010E0055DFD
:10B9800001352C44A4B2F0E7A142F6D9005D01389C
:10B99000A31C80B29DB210FA83F38B42EDDC1580BC
:10B9A00070BD13B513460022ADF806200DF1060256
:10B9B0000446FFF7D5FF10B1BDF80630E01802B01D
:10B9C00010BD72DF704773DF704738B5012204463F
:10B9D0000D46B0F81414D0F81004FFF7E2FF00B1E0
:10B9E000057004F13C0204F5826104F15400BDE8E5
:10B9F0003840FFF7E6BF80F830107047F8B50446CE
:10BA00000F46002973D0002871D091F87A301BB10D
:10BA100091F89830002B6CD1D7F8A030042B68D067
:10BA2000D7F89C30042B64D04FF0000C84F802C08F
:10BA300007F178060FCE251D0FC50FCE0FC596E86E
:10BA4000070085E8070084F830C0D7F8A4306363A6
:10BA5000D7F8A830A36304F582624FF6FF73C4F8E9
:10BA600026C4A4F82434C4F82024C4F829C42278B5
:10BA70000AB984F8543094F82430002B14BFEE2314
:10BA80001F2304F15501C4F81014A4F8143404F26F
:10BA900014423846FFF79AFD40BB94F82430002B3F
:10BAA00014BFEE231F2304F23121C4F81814A4F8A4
:10BAB0001C3404F21C4207F13C00FFF787FDA8B9D3
:10BAC000A369A4F848304FF480730125A4F85030DE
:10BAD00063692064014684F83C50636404F13C02CD
